:100000000C9401090C9439090C9439090C943909A0
:100010000C9439090C9439090C9439090C94390958
:100020000C9439090C9439090C94E62C0C94B72DD6
:100030000C94CB270C9439090C9439090C94390988
:100040000C9439090C9439090C9439090C94390928
:100050000C9439090C9452280C9439090C943909E0
:100060000C9439090C9439090C9439090C94390908
:100070000C9439090C9439090C9439090C943909F8
:100080000C9439090C9439090C9439090C943909E8
:100090000C9439090C9439090C9439090C943909D8
:1000A0000C9439090C9439090C943909F100F300C6
:1000B000F20001570057B35D0100B25D010001007D
:1000C000F100F3000157F200005701048E966E779D
:1000D0003EFE7E5F1DB8F2664EFF5D19B0C2046938
:1000E000542AD62EBFDD19B0C3E529B1E023A5A956
:1000F000B1C10082674C1A978D795120C7068E7C5A
:100100007C7A764FFD5930E2460E9EBEDF1D9991F6
:10011000A0A5A1A9D022C6EF5C1B958990A2A7CC6F
:10012000FB5528B3E44AF76C3BF46A562EDE1F9D5C
:10013000B8D3058892A6CE1EBEDF1D99B0E246EF69
:100140005C07115D980B9D9497EE4E45336B44C749
:1001500029562730C6A7D5F256DFB43862CBA0B6F1
:10016000E30F84062405656F7689B577412782669B
:100170006582CCD5E620D52717C5F803237C5F64BC
:10018000A51DC1D636CB4CD4DB66D78BB1997E6F1B
:100190004C364006D6EBD7A2E4F495515A5496D586
:1001A0005344D78CE0B94068D218E9DD9A239248CD
:1001B000EE7F43AFEA7738848C0A72AF69F8DDF1DD
:1001C0002483A3F84ABFF59413DBBBD8B4B3A0FBD8
:1001D0004550603059123171A2D313E7FAE7CE0FC0
:1001E00063150B6B94BB378326059DFB4692FC0A77
:1001F00015D10D7392D68C1B8CB8558ACEBDFE8E50
:10020000FCED0912839182513123FBB40C76AD7C55
:10021000D9B44BB26714099C7F0C18BA3BD68E1424
:100220002AE41B529F2B7DE1FB6A3302FAAC5AF29F
:100230003E887EAED1F378E805D1E3DC21F6E19A81
:10024000BD170ED9469B8803EAF666BE0E1B5049C1
:10025000964097F1F1E480A66EE87734BF294044D8
:10026000C2FF4E98D39CA3322B76510409E7A9D143
:10027000A632B12353E247ABD6F5695C3E5FFAAED6
:100280004520E5D244FF39326DFD27575CFDF0DE95
:10029000C1B599E5F51C770175C56D5892F2B24765
:1002A000000126967A30FFB7F0EF77C18A5DDCC097
:1002B000D129301E77387A94F1B87A7EEFA4D1AC88
:1002C000314AF25D643DB2E2F00899FC70EE24A779
:1002D0007EEE1E20697D44BF8742DF883B0CDA42F8
:1002E000C904F94550FC838F116A72BC9995F0AC32
:1002F0003DA73BCD1CE2887937115F3989950A16F5
:10030000847AF68AA428E4ED83803BB123A5031008
:10031000F466EABB0C0FC5EC6C69C5D324ABD42AD8
:10032000B799887608A0A8957CD8386DCD59025128
:100330004BF1B52B50E3B6BDD072CF9EFD6EBB44E2
:10034000C8248A77188A1306EF977DFA81F031E680
:10035000FA77ED3106315B548A9F3068DBE240F872
:100360004E73FAAB748B105813DCD2E678D1322E70
:100370008A9F2C58064827C5A95E81478946219146
:100380000370A43E889CDA330ACEBC8B8ECF9FD3F9
:10039000718043CF6BA95183763082C56A8539114C
:1003A000501A82DC1E1CD57DA9719933471997B369
:1003B0005AB1DFEDA4F2E62684A2289A9EDFA66A4F
:1003C000F4D6FC2E5B9D1A2A2768FBC183214B9033
:1003D000E036DD5B314255A013F7D0895371995750
:1003E0000929C5F321F8372F40F3D4AF1608360298
:1003F000FC77C58B049056B9C9679A99E800D386F3
:10040000FF972D08E9B7B391BCDF45C6ED0F8C4CC3
:100410001EE65B6E3830E4AAE395DEB9E49AF5B2E5
:10042000559A879BF66AB2F2779A31F47A31D11DE8
:1004300004C07C32A29E9AF562F8278DBF51FFD38B
:10044000DF64373F2A6F763A7D77069E777F5EEBD3
:100450003251F916669A09F3B008A470964630FF37
:10046000DA4FE91BED8DF8741F3192B3731736DB49
:100470009130D688556B3477877AE7EE06C61C8CA8
:10048000190C4846235E9C075CBFB47ED64F749C13
:10049000E2C5508BC58B159060625729D01343A1DC
:1004A0008088910044C74D1986CC2F2A755AFCEBE1
:1004B000972A70E378D891B04F9907A395EA242141
:1004C000D5DE512093270A3073A8FF8A97E9A76ADF
:1004D0008E0DE8F0DFECEAB46C1D392A622D3D5A2E
:1004E0008B65F890052E7E912C78EF8E7AC12FAC1B
:1004F00078EEAF2845064C26AF3BA2DBA39306B5AA
:100500003CA5D8EE8FAF25CC3F856848A962CC9733
:100510008F7F2AEAE0150AAD6207BD45F841D8365B
:10052000CB4CDB6EE63AE7DA15E9291E1210A0146F
:100530002C0E3DF4BF394192750B257BA3CE399C1F
:100540001564C8FA3DEF7327FE262ECEDA6EFD71D4
:100550008EDDFE76EEDC125C02C53A4E4E4FBFCA0F
:100560004015C76E8D41F110E04F7E977F1CAE475E
:100570008E6BB12531B073C71B9779F980D3662292
:100580003007741EE4D08021D6EE6B6C4FBFF5B7F8
:10059000D909872FA914BE27D9725001D41373A685
:1005A000A751027525E1B345347DA88EEBF31649BA
:1005B000CB4F8CA1B9368539755D0800AEEBF6EAF4
:1005C000D7133A215A5F3084522695C914F25755F1
:1005D0006BB110C2E1BD3B51C0B7554C711226C77B
:1005E0000DF951A43802057FB8F1724BBF7189141F
:1005F000F37738D97124F30011A1D8D469270837CB
:1006000035C9119D901C0EE71CFF2D1EE892E118C4
:1006100010957CE080F4964321F975216438DD9FC4
:100620001E9516DA561D4F9A53B2E2E418CB6B1A98
:1006300065EB56C63BE5FED8263F3A84597266A262
:10064000F375FFFB60B322AD3F2D6BF9EBEA057C40
:10065000D88F6D2C989E2B93F15E46F087492973B5
:1006600068D77FF9F0E57DDB1D7519F3C4589B173A
:1006700088A892E0BEBD8B1D8D9F5676ADAF29E256
:10068000D9D552F6B55635573AC8E156431994D3E1
:10069000049B6D35D80B5F4D198EECFA64910A728C
:1006A000202BBC1A4AFE8BFDBBED1B23EAAD7282E8
:1006B000A1299971BDF095C103DD7BC2B23C2854DC
:1006C000D368A472C86696E0D1D87FF8D1262BF7FC
:1006D000ADBA55CA15B932C3E588978E5CFB922531
:1006E0008BBFA245557AA76F8B575BCF0ECB1DFBF7
:1006F000208277A88CCC16CE1DFADECC0B62FECC05
:10070000E1B7F0C381647340A0C24D8911753355C0
:10071000338DE84AFDEA6E300BD7312CDE47E3BF5C
:10072000F85542E27F59E517EF99346991B1238E6C
:1007300020872DA8FED58AF3843AF037E4090054C7
:10074000EE674993E48170E3904DEFFE41B7997BEA
:10075000C183BA62126F7DDE6BAFDA16F95551EEC6
:10076000A60C2B02A3FD8DFB3017E46FDF3671C49E
:10077000CA872548B047ECEAB4BFA54D9B9F0293BA
:10078000C4E3E4E8422D6881150AEB845BD6A874C3
:10079000FB7D1DCB2CDA462A7662CEBC5C9E8BE7B5
:1007A000CFBE78F57CEBB33A9CAA6FCC72D159F2EC
:1007B0001123D63F48D1B7CEB0BFCBEA80DE57D4A5
:1007C0005E972F75D1508E802C6679BF724BBD8A93
:1007D000816CD3E101DCD21526C536DA2C1AC0278C
:1007E00094EDB79B850B5E8097C5EC4FEC885D5010
:1007F000073547DC0B3B3DDD60AFA85D8138242524
:100800005D5C15D1DEB3ABEC0569EF83ED5754B8F1
:10081000646411163269DA9F2D7F36BB445A34E87E
:100820007FBF03EB007F59682279CF736C2C29A717
:10083000A15F38A11DF02053E01A6314587110AA6B
:10084000080C3E161A6022827FBAA443A0D0AC1BCB
:10085000D56B64B51493319E5350D05766EE5A4F02
:10086000FB032A695876F183F74EBA8C4206605D25
:100870006DCE6088AEA4C3F103A54B98A1FF67E1DC
:10088000ACA2B862D76FA031B4D277AF211006C640
:100890009AFF1D09170E5FF1AA54344B458A8763EE
:1008A000A6DCF9243067C6B2D6613369EE506157D1
:1008B00028E77EEEEC3A5A734EA88DE418EAEC4134
:1008C00064C8E2E866B62DB6FB6A6C16B3DD464333
:1008D000B973006A71ED4E9D251AC33C4A9515996E
:1008E00035811402D6989BECD8233B8429AF0C9910
:1008F00083A69A344FFAE8D03C4BD0FBB668B89E3A
:100900008FCDF7602D7A22E57DAB651B95A7A87F7B
:10091000B677477B5F8B1272D0D491EFDE19503CD3
:10092000A78BC4A9B323CB76E681F0C1048FA3B80B
:10093000545B97AC19FF3F55272FE01D429B57FC96
:100940004B4E0FCE98A9435703BDE7C894DF6E36D0
:100950007332B4EF2E857A6EFC6C18827535900771
:10096000F3E49F3EDC68F3B5F31980920699A2E8A0
:100970006FFF2E7FAE42A45FFBD40E812BC304FF1A
:100980002BB3744E365B9C1500C6472BE88B3DF1AC
:100990009C039A587F9B9CBF854979352E567B4195
:1009A0001439478326AA078998111B86E7737AD8DA
:1009B0007D786153E979F5368D449284F913505866
:1009C0003BA46A3665498E3C0EF16FD284C47E8E9C
:1009D0003F39AE7C84F163378E3CCC3E448145F197
:1009E0004BB9ED6B365DBB20601A0FA3AA55773A61
:1009F000A9AE374DBAB8866BBC0850F6CCA4BD1D65
:100A00004072A586FAE210AE3D584B97F34374A9A5
:100A10009EEB21B701A4869397EE2F4F3B86A14111
:100A20006F412690785C7F30384B3FAAECED5C6FCD
:100A30000EAD4387FD9335E601EF412690999EFB6D
:100A4000195BADD2918AE046AF65FA4F84C1A12D02
:100A5000CF458BD38550557CF96788D44EE9D76B49
:100A60006154A1A4A6A2C2BF309C409F5FD7692B4E
:100A700024825ED9D6A712541AF7559F7650A995AD
:100A800084E66B6DB59654D6CDB3A19B46A7944D25
:100A9000C494B498E3E1E234D533160754CDB77764
:100AA00053DB4F4D469DE9D49C8A36B6B838266C48
:100AB0000EFF9C1B438B80CCB93DDAC7F18AF26DE7
:100AC000B8D7742F7E1EB7D34AB4ACFC79486CBC3F
:100AD00096B69446572DB0A3FC1EB95260852D41A1
:100AE000D043011E1CD57DFCF3960DC7CB2A299A55
:100AF00093DD882D375DAAFB4968A09C50867F68EE
:100B00005657F9791839D4E001843361CAA5D2D691
:100B1000E4C98A4A23444EBCF0DC24A1A0C4E20705
:100B20003C10C4B5254B6563F480E7CF61B1718299
:100B300021872CF59100320CECA9B59A7485E33627
:100B40008F764F9C6DCEBCAD0A4BED7604CBC3B90E
:100B5000339E019396697DC5A245799B045C840907
:100B6000ED8843C7AB931426A140B5CE4EBF2A42B1
:100B7000853E2C3B54E8121F0E9759B22789FAF292
:100B8000DF8E6859DC06BCB6850D0622ECB1CBE5DC
:100B900004E63DB3B04173083F3C588663EB50EE2A
:100BA0001D2C3774A9D318A3476E9354AD0A5DB8B2
:100BB0002A555D78F6EEBE8E3C7669B940C234ECBB
:100BC0002AB9ED7E20E48D0038C7E68F44A886CE92
:100BD000EB2AE990F14CDF32FB731B6D921E95FE00
:100BE000B4DB65DF4D23548948BF4A2E70D6D762E7
:100BF000B43329B13A334C236DA676A5216348E678
:100C0000905DED90950B7A84BEB80D5E630C622604
:100C10004C145AB3AC23A474A76F3330056001425F
:100C2000A028B7EE1938F164808243E141271F1FE5
:100C300090547AD5232ED13DCB28BA587FDC7C91B5
:100C400024E92851836EC5562142EDA05622A140C9
:100C5000806BA8F794CA136B0C39D9FDE9F36FA622
:100C60009EFC708AB3BC593C1E1D6CF97CAFF988A0
:100C70007195EB5700BD9F8C4FE12483C522EAFD9F
:100C8000D30CE217187C6A4CDE77B4539B4C81CDB1
:100C90002360AA0E25739C02793230DF74DF751948
:100CA000F4A5145CF77AA8A591847C6003063BCD7B
:100CB00050B6279CFEB1DDCCD3B05924B2CAE21C99
:100CC00081229D078F8EB9BE4EFAFC3965BABF9D51
:100CD00012375E977EF389F55DF5E3098C62B520E6
:100CE0009D0C538A681BD28F75175DD4E5DA756247
:100CF00019146A262DEBF8AF37F06CA455B1BCE29D
:100D000033C09ACAB011494F689B3B6B3CCC13F679
:100D1000C785616842AEBBDDCD4516291DEADBC83B
:100D200003943CEE4F8211C3EC28BD970599DED7A2
:100D3000BB5E221FD4EB64D992D985B76A056AE4F9
:100D40002441F1CDF0D83FF89E0ECD0B7A706B5A4E
:100D5000750A6A3388EC17750870102F24CFC4E920
:100D600042006194CA1F3A7606FAD24881F0776051
:100D70000345D961F4A46F3DD930C3046B542AB73D
:100D8000EC3BF44BF5685226CEFF5D1991A0A3A56C
:100D9000A9B1E023C40A774DF95120A3A5A9B1C197
:100DA0000082868E7F5D1991A0A3C4EB540B7568F9
:100DB00052078C9A978D79706246EF5C1B9589710A
:100DC00041E121A1A1A1C002674C1AB6CFFD785321
:100DD00024ABB5C9F16023A5C812876D5813858867
:100DE00092876D5832C70C9A97ACDA36EE5E3EDFCA
:100DF0001DB8F2662FBDF87247ED581385889287AB
:100E00008C7B550990A2C6EF3DF85324ABD42AB78A
:100E1000EC5A36EE5E3EDF3CFA764FFD5930E24644
:100E2000EF3DF853056931C10082868E7F5D19B0B0
:100E3000E227CCFB744B148B948B756833C50892F6
:100E4000878C9AB6CF1CBAD70D98B2E62FDC1B95CB
:100E500089716023C40A968F9CBAF66E3FFC5B15BD
:100E6000A8D226AFBDF872662FDC1BB4CB148B94CE
:100E7000AAB7CDF951018082866F3DD930E227CCE7
:100E8000FB744B14AAB7CDF97043046B35C9F160FC
:100E900023A5C8F3450892876D5832E62FBDF87236
:100EA000664E1EBEFE7E7E7E5F1D9991A0A3C40A83
:100EB000774D1893A4ABD40B754910A2C6EF3DF83B
:100EC0005324ABB5E833E44A16AEDE1FBCDB15A8ED
:100ED000B3C5087345E931C1E121A1A1A1C00286D2
:100EE0006F5C3AD70D9893A4CA16AEDE1F9D99B0D9
:100EF000E246EF3DF872470C9AB6CFFD5911A0A318
:100F0000A5C8F3450892876D39F043048A96AEDE92
:100F10003EDF1D9991A0C2066F3DF872470C9A976B
:100F20008D989385887345E931E023A5A9D0038482
:100F30008A96AEDE1FBCDB15A8D226CEFF5D1991C6
:100F4000818082672DD813A4ABD40B94AAB7CDF9B6
:100F50005120A3A5C8F345E95022C6EF5C3AD70D4E
:100F60009893858873644AF74DF95120A3C40A9673
:100F7000AEDE3EFE7E7E7E5F3CFA764FFD78726688
:100F80002FBDD930C3E54812878C7B5528D2078CFA
:100F90009A97ACDA178D795120A3C4EB540B948B3C
:100FA00094AAD62EBFFC5B15A8D226AFDC1BB4EAF0
:100FB00037EC3BF46A37CD1893856931C1E140E3E2
:100FC00025C812878C9AB6CFFD5911A0C2068E7F14
:100FD0005D38F2470C7B746A37EC5A36EE3FFC7A88
:100FE000764F1C9B95897141006344EB542AD60FC0
:100FF0009CBAD70D9893856931C10082868E9EBEBA
:10100000DF3CFA572CDA36EE3FFC5B158971410064
:1010100082868E7F5D38F247ED5813A4CAF74DF9EA
:101020005101806344EB542AD62EBFDD1991A0A351
:10103000A5A9B1E042068E7F5D1991A0A3C40A96CE
:101040008F7D7872470C7B746A562EDE1FBCFA5770
:101050000D7951016121A1C0E325A9B1C1E140028F
:10106000674C1A978D9893A4ABD42AD60F9C9BB447
:10107000CB14AAB7CDF95120A3C4EB35C9F1604216
:10108000068E7F7C7A766E3FFC7A766E5E3EFE7EC2
:101090005F3CDB15897141E121C0E344EB542AB781
:1010A000CDF9706227ADD832C70C7B744B14AAB748
:1010B000EC3BD528D2076D39D120C2E74C1A978D69
:1010C00098B2C70C5928F39B42BD04140354007214
:1010D00000610063006B00620061006C006C000046
:1010E00000120350006C006F006F00700079004325
:1010F000006F0000000403090409023B0002010024
:10110000A0320904000001030101000921110100BE
:1011100001224000070581030800010904010001C4
:1011200003000000092111010001227B0007058254
:101130000320000112010002000000084350425445
:1011400001000102000105010902A1018502090156
:10115000A100050919012908150025019508750147
:1011600081020501093009311581257F9502750835
:10117000810609381581257F950175088106050CC2
:101180000A38021581257F950175088106C0C005C2
:10119000010980A101850319012AB700150126B7AD
:1011A00000950175108100C0050C0901A10185049D
:1011B00019012AA002150126A002950175108100CF
:1011C000C005010906A101050719E029E715002559
:1011D00001950875018102950175088101050719BE
:1011E0000029FF150026FF009506750881000508F7
:1011F0001901290595057501910295017503910164
:10120000C00011241FBECFEFDAE0DEBFCDBF04B6B1
:1012100003FE18C08091A0039091A103A091A203A6
:10122000B091A3038730904BA740B04B59F4109274
:10123000A0031092A1031092A2031092A303E0E076
:10124000F8E3099511E0A0E0B1E0E6ECF2E602C0B7
:1012500005900D92AE3BB107D9F723E0AEEBB1E0BC
:1012600001C01D92A03AB207E1F70E94AC1C0C9499
:101270004B310C940000109238031092B00210927F
:10128000F4028FEF93E09093F6028093F5021092B0
:101290003B0310923A031092F70210927F031092D0
:1012A000860310928503109283031092820310929A
:1012B000B1021092F3029093810380938003109205
:1012C00071021092700210923C031092B2021092BE
:1012D000400310923F031092F9021092F80210920C
:1012E00039031092840310923E0310923D03109232
:1012F000B4021092B3020895FC01208131812E3195
:1013000031052CF42F5F3F4F3183208308951182E4
:10131000108281E0FB0180830895A2E0B0E0E3E960
:10132000F9E00C94B630FC013B012A013A83298391
:10133000DB018D919C911197E817F90714F4ED9357
:10134000FC93D2018D919C9111978E179F0714F4F5
:10135000ED93FC93D2012D903C90D3012D913C91C3
:10136000C101821B930B8A309105B4F163E070E0F8
:101370000E949C30620F731FE617F7070CF06FC0D6
:10138000F8018081882309F465C0D401ED91FC91B6
:10139000EE0FFF1FEC0DFD1D31822082698D7A8DCD
:1013A000C4010E947C09F30120813181D2018D9119
:1013B0009C91821B930B97FD019695958795820FC3
:1013C000931FF30191838083D2018D939C93E981D4
:1013D000FA811082D8011C92A98DBA8D8C91882334
:1013E00009F456C0F6019601225C3F4F90E080E080
:1013F00041915191840F951F2E173F07C9F76FE157
:1014000070E00E949C309B01EF89F88D80818823D9
:1014100009F458C0F701A701425C5F4F90E080E0FB
:1014200061917191860F971F4E175F07C9F76FE1A2
:1014300070E00E949C30FB01C9018E1B9F0B63E092
:1014400070E00E949C30CB018E0F9F1F2296E2E13C
:101450000C94D23081E0E981FA818083BDCF6E1790
:101460007F070CF0B9CFA981BA818C91882369F0EC
:10147000D501ED91FC91EE0FFF1FEE0DFF1D3183A5
:1014800020836F89788DC5018CCF81E0F801E5CF8D
:10149000F401608171816115710581F0F60130E020
:1014A00020E090E080E0261737070CF0AACF4191AA
:1014B0005191840F951F2F5F3F4FF5CFD2012D9192
:1014C0003C91A2CFD5016D917C916115710581F0A0
:1014D000F70150E040E090E080E0461757070CF03D
:1014E000A8CFA191B1918A0F9B1F4F5F5F4FF5CF9E
:1014F000D301ED91FC91A0CF8F929F92AF92BF92BA
:10150000CF92DF92EF92FF920F931F9323EF32E07F
:101510003F932F9321EB32E03F932F9322E8822ECB
:1015200023E0922E35E8A32E33E0B32E4AEFC42EEB
:1015300042E0D42E51E4E52E53E0F52E0FE713E000
:1015400027EF32E04AE353E065EF72E00E948D0935
:1015500090933E0380933D030F900F900F900F9058
:101560001F910F91FF90EF90DF90CF90BF90AF90C1
:101570009F908F9008958F929F92AF92BF92CF923B
:10158000DF92EF92FF920F931F9324E833E03F9393
:101590002F9329E333E03F932F9328EF822E22E00D
:1015A000922E3FE3A32E33E0B32E45EBC42E42E050
:1015B000D42E52E7E52E52E0F52E02EB12E02CE39A
:1015C00033E040E752E060E873E00E948D099093B9
:1015D000B4028093B3020F900F900F900F901F9161
:1015E0000F91FF90EF90DF90CF90BF90AF909F90C2
:1015F0008F9008950F931F93CF93DF938C01EB018E
:101600008091B102882321F08091F302811103C0FF
:10161000C8010E947C0A80913903882321F08091BF
:101620008403811103C0CE010E94BB0A40913D0397
:1016300050913E038091B3029091B40220913803FF
:10164000211125C004171507A0F4C817D90710F4F5
:1016500080E00AC083E0809338038091F4028823FD
:10166000B9F31092F40281E0DF91CF911F910F91B5
:101670000895C817D90760F781E0809338038091F7
:10168000B002882329F31092B0028FEFEDCF213002
:10169000A1F40417150750F0C817D907C8F2109223
:1016A00038032093F4021092B002D2CFC817D907A2
:1016B00078F682E080933803F4CF223001F50417E6
:1016C000150770F0C817D90718F681E08093380322
:1016D0008091B002882309F4BBCF1092B002C3CF2F
:1016E000C817D90708F4B4CF83E0809338038091FA
:1016F000F402882309F4ACCF1092F402C6CF041789
:10170000150760F0C817D90708F4A2CF1092380364
:1017100081E08093B0021092F4029ACFC817D907E3
:1017200008F096CF82E080933803F2CF81E00895ED
:10173000CF93DF93D62F0E94960BC82F882329F0D2
:101740008AEFD11189EF0E9442108C2FDF91CF9147
:101750000895CF93DF938091C5019091C6010E94B7
:1017600043288436910550F18091C7019091C801BA
:101770000E944328059710F18091C90181111EC074
:101780000E942B289093C8018093C70180E00E949B
:10179000A425EC0184E00E94A425BC01CE010E9496
:1017A000FA0A082E000C990B009741F061E0181618
:1017B00019060CF060E080E00E94980BDF91CF9159
:1017C0000895ACE0B0E0E7EEFBE00C94C0304F834E
:1017D00058878B017C010E94A90B8091C40188234A
:1017E00009F446C0E091C201F091C301E00FF11D80
:1017F00007FDFA95F093C301E093C2012091C00167
:101800003091C101211B310917FD33953093C1017E
:101810002093C0018FE0C82ED12CCF01B6010E94C9
:101820009C308B01C901B6010E949C300115110545
:1018300069F0F00E41EF4003C001419F900D11246B
:10184000E80FF91FF093C301E093C2016115710520
:1018500069F0E60E41EF4603C001479F900D112449
:10186000280F391F3093C1012093C00110E000E020
:101870004F815885B801C7010E94591F80E090E050
:101880002C96E8E00C94DC30EF92FF920F931F93BC
:10189000CF93DF937C01EB018881813061F48981F2
:1018A000811109C00E942B289093C6018093C50125
:1018B0008A818093C901BE01C7010E94480E082F8A
:1018C000882341F182EBE8168DE5F80649F51A8187
:1018D000112301F18091870390E0019667E070E0A9
:1018E0000E948830809387036091870370918803FA
:1018F0008091890390918A030E948A18E09187035E
:10190000F0E0EE0FFF1FE050FF4F808191810E94B9
:101910005020012F802FCDB7DEB7E6E00C94DE30EB
:1019200083EBE8168DE5F806A9F78A81882331F064
:101930008091C40191E089278093C401E0918703DD
:10194000F0E0EE0FFF1FE050FF4F6081718180914A
:10195000C401882361F090E080E00E948D2F20E098
:1019600030E040E45FE30E94F32F0E945E2FCB0142
:101970000E945020CFCFAAE0B0E0E1ECFCE00C9454
:10198000C4308098889884988C988AE0E3E4F1E0E9
:10199000DE01119601900D928A95E1F7FE013196D4
:1019A000AE01455F5F4F61E070E08191A82FA29585
:1019B000AF70B0E091962C9191978F708B0102C01F
:1019C000000F111F8A95E2F7C801922F982B91966C
:1019D0009C93919792969C91929780958923929649
:1019E0008C934E175F0709F70E9417192A96E4E0B7
:1019F0000C94E030E0918703F0E0EE0FFF1FE05021
:101A0000FF4F808191810E9450200E943B090895E0
:101A100081E08093870360918703709188038091B0
:101A2000890390918A030E948A180E949818089549
:101A30000E948518609387037093880380938903BD
:101A400090938A03683010F00E94080D0E94D81B02
:101A50000895E0918703F0E0EE0FFF1FE050FF4F85
:101A6000808191810E9450200E94181908958091D0
:101A7000CA01823019F0833031F0089584EF90E08C
:101A80000E943C0E08951092C4011092CC0108955A
:101A90008091CA01833049F0863059F08230D1F408
:101AA00085EF90E00E943C0E089581E00E94931320
:101AB00008958091CC01882369F01092C40180E0E0
:101AC0000E946F13882321F082E00E9483130895FF
:101AD0000E9456130895FC018281813039F485817A
:101AE00082FD0DC080FF0BC083E00895823049F471
:101AF000858182FD08C080FD08C086E0089582E0EF
:101B0000089581E0089584E0089585E008950E9495
:101B10006B0D8093CA01833019F0863039F0089537
:101B200081E08093C4018093CC010895E091870304
:101B3000F0E0EE0FFF1FE050FF4F60817181809158
:101B4000CB01811108C0769567950E94CB2081E07A
:101B50008093CB01089580E00E94CB201092CB01AE
:101B600008950E946B0D8093CA01833019F481E0BF
:101B70000E94831308959C013A9521153F4150F529
:101B8000FC01EE27F170BC0166277270AC0144279E
:101B900054709C012227387094FF0EC080E1EF2B17
:101BA00009F480E0672B09F08062452B09F080641E
:101BB000232B89F08068089581E0EF2B09F480E001
:101BC000672B09F08260452B09F08460232B19F004
:101BD0008860089580E00895CF93DF93EB010E9421
:101BE000BB0DFE010995DF91CF910895CF93DF934F
:101BF000EC01805E9109089720F060EB72E120977C
:101C000011F46BE470E1CE010E94EC0D8C2F0E9468
:101C1000AC0FDF91CF910895CF93DF93EC010E9439
:101C2000F80FCE01805E9109089720F067EB72E112
:101C3000209711F462E570E1CE010E94EC0DDF9176
:101C4000CF9108950F931F93CF93DF938C01EB01F6
:101C50000E94F60D209741F4C8010E940C0EDF91FE
:101C6000CF911F910F9108958FEC97E00197F1F7B5
:101C700000C000002197EECF70E060E0893391054D
:101C800011F460E570E00E94220E089581E008954D
:101C900081E0089508950E944A0E0895A5E0B0E0FD
:101CA000E4E5FEE00C94C53049835A833091D201BB
:101CB00089819A81311119C0662399F0222389F014
:101CC0000E944014182F682F89819A810E94251440
:101CD00069817A81812F0E949F1A2596E3E00C94F6
:101CE000E1300E943214182FF3CF0E944014698112
:101CF0007A81F1CFFC01262F40815181628173816D
:101D000084810E944E0E089581E00895CF93DF9361
:101D1000EC0160E00E947A0EBE010E944B0EDF9142
:101D2000CF9108950E94180D08950E94DA1B08951E
:101D300008950E94D4120E94980E2FE78AE196E03F
:101D4000215080409040E1F700C0000008950E94BB
:101D5000990E0E94762808950E94990E0E949A2852
:101D600008950F931F93CF93DF938C0161E00E943E
:101D70007A0EEC01B8010E940825B801CE010E943C
:101D8000440C811106C080E0DF91CF911F910F912B
:101D90000895B801CE010E9429258823A1F3B80136
:101DA000CE010E947724882371F3B801CE010E94EE
:101DB0007B22882341F3B801CE010E94E9238823C6
:101DC00011F3F8018281882361F0CB35FDE5DF074F
:101DD00001F158F4C115ECE5DE0791F0CF3DDC458B
:101DE00091F0C8010E94460ECFCFCD358DE5D807C2
:101DF00069F090F0C83ADD45A1F70E94AC0EC3CF60
:101E00000E94A70EC0CF0E94FA18F7CF0E943B187D
:101E1000E8CF0E944518E5CF0E944918E2CF0E9402
:101E2000AD270E942E0F0E94C41F08950E94320FFA
:101E30000E94B227089508950E941B0F089581E023
:101E400008950E941F0F08950895CF93C82F0E94F0
:101E50001C0F8C2F0E94210FCF91089580E00E94CB
:101E6000250F08950E94DA260E94250F0895CF932A
:101E70000E94DA26C82F8091CD018C1779F0C0938B
:101E8000CD010E9437286093CE017093CF018093DB
:101E9000D0019093D1018C2F0E94250FCF910895EE
:101EA000ABE0B0E0E6E5FFE00C94C6304F83588726
:101EB00069877A878B8761110E9486171E821D822F
:101EC00085E0FE013796DE01119601900D928A950C
:101ED000E1F78C819D81892B61F449815A816B8165
:101EE0007C818D819E810E94AC162B96E2E00C9441
:101EF000E23089819A8189238F3F79F3CE0101965F
:101F00000E94840E8111E9CFF0CFFC018081918184
:101F10000E9472140895A6E0B0E0E1E9FFE00C949D
:101F2000C430082F162F0E941C2029834B835C830A
:101F30006D837E83002369F0312B4981532F6B81A0
:101F40007C818D819E810E9437202696E4E00C944E
:101F5000E03010953123F1CFCF93C82F8823B9F00B
:101F60008CEF8C0F813AA8F46C2F80912A0190910C
:101F70002B010E943E27882329F08C2F0E944317B3
:101F80000E94A7178C2F0E943B170E94A717CF9182
:101F9000089580E28C0F883048F4C77081E001C05A
:101FA000880FCA95EAF70E946617EFCFEBE5EC0FB2
:101FB000E33040F4F0E0E558FE4F808190E00E946D
:101FC0000027E5CFE8E5EC0FE73150F4F0E0EE0F45
:101FD000FF1FE35BFE4F808191810E941627D7CFC0
:101FE000CD3EA8F28C2F0E94301D0E94031ECFCF41
:101FF000882379F19CEF980F913A28F40E944317B7
:102000000E94A717089590E2980F983050F48770B7
:1020100091E001C0990F8A95EAF7892F0E946C1709
:10202000EFCF9BE5980F933028F490E080E00E947A
:102030000027089598E5980F973128F490E080E004
:102040000E94162708958D3E20F00E948A1D0E944E
:10205000031E08951F93CF93DF93182FEB010E9467
:10206000AC0F209739F4812F0E94F80FDF91CF91A8
:102070001F9108958FEC97E00197F1F700C00000E1
:102080002197EFCF70E060E0893311F460E570E0F4
:102090000E942A100895882321F00E9466170E944A
:1020A000A7170895882321F00E946C170E94A71794
:1020B0000895B0E0A0E0EFE5F0E10C94BF306C01D2
:1020C000D62FC72FFC011281F580F2949FE0F922F0
:1020D0000E945C17E82E8823B9F0E12E1123A1F0AD
:1020E0008C2F807F803421F080E28D0F8830D0F0FB
:1020F00080918C0382FF16C082E00E940A180E9421
:102100005C1791E0E82EE926BC2EB2948FE0B8224D
:10211000FBE0FB1508F468C0EB2DF0E0E35BFE4C40
:102120000C94B030E12CF0CF0C2F0F70C07F11F069
:102130000295007F112399F0002359F080E28D0F62
:10214000883010F0D11107C0802F0E9466170E94BE
:10215000A7178D2F41C0802F0E947917F8CF8D2FA0
:102160000E94F80F002309F43FC080E28D0F8830F1
:1021700010F0D11104C0802F0E946C1703C0802F73
:102180000E947F170E94A7172FC00C2F0F70C07FCF
:10219000C03211F00295007FDD2381F0D13009F4C7
:1021A00065C0112309F46FC0FF2009F465C0F60172
:1021B000858180FFCECF8F7085835EC080918C0338
:1021C00082FD34C0112359F0002329F0802F0E9492
:1021D00066170E94A71780E00E94AC0F05C080E040
:1021E0000E94F80F0111C7CF2B2D2850330B24303C
:1021F000310520F40E94DA260E94250FEE2089F096
:102200000E94581780FD0DC0F60112820E945217DD
:102210000E948313C6010E9486120E9452170E94D8
:102220009313CDB7DEB7E9E00C94DB30112389F0CE
:10223000F11006C00E948917802B0E944B10D4CF4A
:1022400021E0F212F7CF0E948917802B0E9490178D
:10225000CBCFF11006C00E949D17802F0E94521014
:10226000C3CF31E0F31609F4BFCFF5CF112331F01E
:1022700085E08F1508F4B8CF802FDFCF94E09F154D
:1022800008F4B2CFEACFFF2041F3D93349F4FFEF8E
:1022900023EF31E0F15020403040E1F700C0000072
:1022A0008D2F0E94F80FA0CF8C2F86958695837076
:1022B00069F0813009F098CF8D2F9C2F9370111108
:1022C00002C090E080E00E9416278ECF8D2F9C2FB9
:1022D0009370111102C090E080E00E94002784CF2B
:1022E0008D2F112391F00E94301DED2FE15FFF0B28
:1022F000E830F10568F461E070E001C0660FEA952E
:10230000EAF7812F0E948B0F6FCF0E948A1DEDCFBD
:102310000E94031E69CF8C2F8370A1F5111164CF29
:102320004D2F429546954770440F440F2D2F2F7027
:1023300030E0042E02C0220F331F0A94E2F790E02F
:1023400080E0D4FF09C08FE090E002C0880F991FA1
:102350004A95E2F780959095C695C695C370822BF5
:10236000932BC23049F058F4C13019F00E94351354
:102370003BCF0E942C1338CF0E943E1335CF0E94D2
:10238000291332CF8695112311F08C2F8170882369
:1023900009F42ACF4D2F429546954770440F440FBC
:1023A0002D2F2F7030E0042E02C0220F331F0A940D
:1023B000E2F790E080E0D4FF09C08FE090E002C037
:1023C000880F991F4A95E2F780959095C695C69516
:1023D000C370822B932BC23049F058F4C13019F0EE
:1023E0000E94BE1301CF0E94B513FECE0E94C713F8
:1023F000FBCE0E944D13F8CECF70112329F08C2F05
:102400000E9483138D2F19CF8D2F0E9452108C2F75
:102410000E949313E9CED23F51F160F4D03FB9F05E
:10242000D13F81F0112309F449C0F11092CE8C2FD5
:102430008F7121C0D33F11F1D43FA1F780918C035C
:1024400082FD26C08C2F8F71112311F314C011232C
:1024500049F0F4E0FF1508F4C7CE8C2F8F710E946D
:10246000A513C2CE25E02F1508F4BECEF6CF8C2FD3
:102470008F711111CDCF0E948313B6CE112329F095
:102480008C2F8F710E947713AFCE0E945613ACCE63
:10249000112349F0CF718C2F0E94831363E08C2F9E
:1024A0000E94EC17A1CE81E00E940A1831E03F158E
:1024B00008F09ACE82E00E940A1896CEFF2059F0CA
:1024C000D93309F0EDCE8FEF93EFE1E081509040EA
:1024D000E040E1F7E3CE8C2F8F719ACF0F931F93DB
:1024E000CF93DF93EC01688179818A810E947D140A
:1024F0008C010E94D0130E942813B801CE010E94C3
:102500005910DF91CF911F910F910895CF93DF93D1
:10251000EC018B819C81892B29F088819981892309
:102520008F3F51F4DF91CF910895CE010E946E123A
:10253000CE010E94860EF6CFCE010E94B10E81110F
:10254000F4CF0E945C17882369F38A81882351F3B2
:1025500080918C0382FFE6CF82E00E940A18E2CFCE
:10256000882321F00E9479170E94A71708958823D5
:1025700021F00E947F170E94A717089590E080E045
:102580000E94002790E080E00E9416270E94861794
:102590000E94A7170E941F1E0E94031E08950E94FA
:1025A0004B170E94BE1208950E9473170E94CF120B
:1025B000089592959F70963091F058F4925F9F70B5
:1025C000923058F4803F19F030F4883E30F481E0C6
:1025D00008959A5FF4CF843FD1F380E00895883E58
:1025E000B0F3813FD1F7F3CFFC0183819481892B34
:1025F00029F08081918189238F3F11F480E0089533
:10260000808191810E9472140E94D9120895A5E0E0
:10261000B0E0EDE0F3E10C94C6302596E2E00C94D6
:10262000E230A6E0B0E0E7E1F3E10C94C630269694
:10263000E2E00C94E23008950E941B1308950E947A
:102640001C139093DA018093D9010E94BE12089561
:1026500008950E941F1308952091D9013091DA0145
:10266000822B932B0E941F1308952091D901309142
:10267000DA01822393230E941F1308952091D90128
:102680003091DA01822793270E941F1308950E9438
:102690001B1308950E94471308950E944A139093B4
:1026A000D8018093D7010E94BE12089590E080E087
:1026B0000E944D130895009729F481E0662371F07C
:1026C00080E00CC021E030E002C0220F331F6A9589
:1026D000E2F72823392381E0232B91F30895682F13
:1026E0008091D7019091D8010E945B13089521E059
:1026F00030E0A90102C0440F551F8A95E2F7CA01D4
:102700000E944D13089521E030E002C0220F331FD4
:102710008A95E2F78091D7019091D801822B932B73
:102720000E944D13089521E030E002C0220F331FB4
:102730008A95E2F7209530958091D7019091D80144
:10274000822393230E944D13089521E030E002C0BC
:10275000220F331F8A95E2F78091D7019091D8011B
:10276000822793270E944D1308952091D70130911D
:10277000D801822B932B0E944D1308952091D701ED
:102780003091D801822393230E944D130895209104
:10279000D7013091D801822793270E944D130895C5
:1027A0000895262F277091E001C0990F2A95EAF726
:1027B00023E0769567952A95E1F7660F771F660FF8
:1027C000771FFA01E60FF71F50E040E0682F70E036
:1027D0008191DF0111979B01042E02C03695279548
:1027E0000A94E2F7217021952827292328272C9382
:1027F0004F5F5F4F4430510559F70895A82FA770D8
:1028000023E0969587952A95E1F7880F991F880F01
:10281000991FFB01E80FF91F50E040E080E0219193
:1028200030E00A2E02C0369527950A94E2F721700F
:102830003327042E01C0220F0A94EAF7822B4F5F40
:102840005F4F4430510559F70895262F911109C063
:10285000853038F4682F70E043ED51E0822F0E94FC
:10286000D113089591110AC0853030F463ED71E001
:1028700090E00E94FE13982F892F089590E0FCCFDE
:10288000B0E0A0E0E6E4F4E10C94BF307C010091FC
:10289000D7011091D8018091D9019091DA01082BCC
:1028A000192BCFE0D0E0CC24C394D12CBC2EC60190
:1028B0000C2E02C0880F991F0A94E2F780239123FF
:1028C000892B49F4219790F7B12C8B2DCDB7DEB72A
:1028D000E9E00C94DB30B7018C2F0E94B41A019709
:1028E00089F3F3CFCF93DF93EC010E944014BE0134
:1028F0000E94B41ADF91CF9108951F93CF93DF9375
:10290000EB019091D201992339F0CB010E9472140E
:10291000DF91CF911F910895882369F0CB010E9428
:102920004014182F682FCE010E942514BE01812F5C
:102930000E94B41AEDCFCB010E943214182FF6CFAB
:102940001F93CF93DF93C091DB0116E08091DC01F0
:102950008C1304C0DF91CF911F910895D0E01C9F8C
:10296000F0011D9FF00D1124E352FE4F4081518173
:1029700062817381848195810E9411132196C770B1
:10298000E5CF40910D0250910E0260910F027091BF
:10299000100280911102909112020E941113089569
:1029A0001F93CF93DF9380911202807F09F049C07B
:1029B00080910F02882309F444C08091DB01C0910B
:1029C000DC0160910D0270910E02A0911002B09195
:1029D0001102D62FD72316E0C81799F190E010976F
:1029E00011F0DF3F19F401968770F6CF189F900120
:1029F000199F300D1124F901E352FE4F4181471315
:102A0000F2CF40814613EFCF42814111ECCF438199
:102A100054814A1B5B0B483C510528F780911202F8
:102A20008F70806180931202F901EE51FE4F808118
:102A30008F70806180838DE092E00E9486120E94F8
:102A4000A014DF91CF911F910895A1E1B0E0EBE2D6
:102A5000F5E10C94BE308C0185E0F801DE011D9695
:102A600001900D928A95E1F7F801E2808DE0C82E81
:102A700082E0D82E609110027091110261157105EB
:102A800009F44EC190910D0220910E02892F8223EC
:102A90008F3F09F445C140815181A380B480F090FB
:102AA0000F02F501E61BF70BFF2009F4EAC0809145
:102AB0001202382F307FE83CF10508F0A3C0311135
:102AC0006DC0FE2C251316C0941314C0E11012C063
:102AD0008F708061809312020E94C114C6010E940F
:102AE000861280911202F80185838F2D6196EAE0AB
:102AF0000C94DA30A114B10429F0842F85238F3F80
:102B000009F027C180E0F82FF170DF2E80FF3CC074
:102B10008091DB012091DC0136E0821315C04D87E6
:102B20005E878D859E850E947214292F22952F70B5
:102B30002230F0F0243018F59F70F1F0F801958103
:102B4000907FD1F4D12C1EC090E0389FF001399FC6
:102B5000F00D1124E352FE4F6181651306C06081C0
:102B6000641303C06281E6120FC001968770D5CF4F
:102B70009F7011F0882331F3805E883018F3C8010C
:102B80000E948612FD2CB1CFEE2009F4AECF8091C9
:102B90001202816080931202F12CA7CF251306C088
:102BA000941304C0F801EE2009F487C0C8010E9404
:102BB000F412882319F1EE2009F18091120280327B
:102BC00070F020910D0230910E0238872F83198604
:102BD000BB86AA868C87CE0107960E94861286E065
:102BE000F801ADE0B2E001900D928A95E1F70E9404
:102BF000D0140E94C114FF24F39477CFC8010E941F
:102C00008612F9CF311113C07A2DB98AA88A6E2D98
:102C100089890E9407138DE092E00E94861286E067
:102C2000F60111928A95E9F70E94C114B5CF2513D8
:102C30000FC094130DC0E1100BC0F8018583C801CB
:102C40000E94861286E0F60111928A95E9F74DCF2F
:102C5000C8010E94F412882389F2EE2079F2809153
:102C60001202803208F4BBCF20910D0230910E0287
:102C70003A8329831B82BD82AC828E83CE0101966A
:102C8000ACCFE83CF10508F03EC0FE2CEE2009F484
:102C9000B5CF25132AC0941328C08091120280FD5D
:102CA0001BC0982F907FC1F0F8018583903F31F0D1
:102CB000982F907F905F8F70892B8583C8010E9429
:102CC000861286E0F801ADE0B2E001900D928A959F
:102CD000E1F70E94C11409CF86E0F801ADE0B2E04F
:102CE00001900D928A95E1F700CFC8010E94F4127D
:102CF000811175CF80911202816080931202C80108
:102D00000E948612F2CE7A2DB98AA88A6E2D898900
:102D10000E94071386E0F60111928A95E9F7D9CF50
:102D2000EE2009F46BCFC8010E94F412F82E88231C
:102D300009F464CF86E0F801ADE0B2E001900D92B5
:102D40008A95E1F78DE092E00E94850F0E94D014F1
:102D5000C0CF81E08E25D7CEACE0B0E0E2EBF6E16B
:102D60000C94C5304F83588769877A878B879C87F7
:102D7000CE0107960E942515882369F08A859B85D8
:102D8000892B39F04F815885842F85238F3F09F097
:102D90006BC016E05FC086E0FE013796DE0111963B
:102DA00001900D928A95E1F78A859B85892B89F39D
:102DB0008F81988589238F3F61F32091DC0130E07A
:102DC000C9010196877099274091DB0148171906C0
:102DD00071F40E94D4121092DC011092DB0186E0A3
:102DE000EDE0F2E0DF011D928A95E9F7D2CF96E09F
:102DF000929FD001939FB00D1124A352BE4FFE01AC
:102E0000319601900D929A95E1F78093DC010E9432
:102E1000A014BFCF819FC001112483529E4F0E94F6
:102E200025158823E9F0E091DB011E9FF0011124B4
:102E3000E352FE4F4081518162817381848195818B
:102E40000E9411138091DB0190E001968770992711
:102E50008093DB018091DB019091DC018913DACF53
:102E60002C96E3E00C94E13069857A858B859C850E
:102E70000E9411138ECF682F80912A0190912B010F
:102E80000E9474270895682F80912A0190912B0148
:102E90000E947727089580912A0190912B010E942A
:102EA0007A27089580911B028595859585950895CB
:102EB00080911B028770089590911B02977081E0AA
:102EC00009F480E0089580912602089590912602E9
:102ED000892B80932602089580959091260298234D
:102EE000909326020895109226020895809125025B
:102EF000089590912502892B80932502089580954D
:102F0000909125029823909325020895109225020E
:102F1000089580911C02089508950E948C170895C9
:102F200090918C0392FF08C090911C02981721F099
:102F300080931C020E948D17089580911C028823A3
:102F400029F010921C0280E00E948D170895CF9303
:102F5000DF93E0912A01F0912B018091260280837A
:102F6000E0912A01F0912B01808190912502892B1B
:102F7000808390911C02992381F0E0912A01F091C5
:102F80002B018081892B808380912A0190912B01D4
:102F90000E942C2781110E949D17C0912A01D09177
:102FA0002B0148E050E063E172E0CE010E94ED3079
:102FB000892B59F088E0FE01A3E1B2E001900D9267
:102FC0008A95E1F7CE010E94E726DF91CF9108951F
:102FD00008950E94E817089590918C0392FF11C004
:102FE00098E0899F90011124622B60931B020E943C
:102FF000831380911B028595859585950E94E9171D
:1030000008950E948313089510921B0280E00E948D
:10301000E917089590911B028095892380931B02E4
:10302000282F277091F4282F082E000C330B9217AD
:10303000130659F090918C0392FF07C085958595F2
:1030400085950E9493130E940418089590918C0313
:1030500092FB222720F9281769F080FB92F99093C0
:103060008C0380918B0390918C030E94771882E0EF
:103070000E940A18089580918C0382FB882780F9AA
:1030800091E089270E942618089581E00E94261861
:10309000089580E00E94261808956FEF7FEF90E07A
:1030A00080E00E943531089590E080E00E94113167
:1030B00021E0883E9E4F09F020E0822F089582E0B3
:1030C00090E00E940331089583E090E00E94033174
:1030D0000895CF9384E090E00E940331C82F82E2EC
:1030E00090E00E940331982F8C2FCF910895CF93B9
:1030F000C92F682F84E090E00E9417316C2F82E284
:1031000090E00E941731CF9108958FE090E00E94E7
:103110000B310895AB01BC018FE090E00E94293192
:103120000895AB01BC0183E190E00E94293108952C
:1031300060E070E0CB010E949118089568EE7EEF88
:1031400090E080E00E94353160E082E090E00E94F3
:10315000173160E083E090E00E9417311092DA01AD
:103160001092D90160E084E090E00E94173164E0A1
:1031700082E290E00E94173160E085E090E00E94DA
:10318000173160E086E090E00E9417316FEF87E032
:1031900090E00E94173140E050E0BA0188E090E0F2
:1031A0000E94293160E08DE090E00E94173140E0FC
:1031B00050E0BA0188E190E00E94293160E087E1A7
:1031C00090E00E94173140E050E0BA018CE190E0BD
:1031D0000E94293170E060E080E290E00E94353189
:1031E00040E050E0BA0188E190E00E9429310E945D
:1031F000080D08950E949E180895682F8EE090E0B3
:103200000E94173108950E94372860932E02709310
:103210002F02809330029093310260932A027093C0
:103220002B0280932C0290932D0208950895089507
:1032300008958EE99BE10E94D0260E9416190E94F3
:10324000BB0C089581E008950E9422190895089505
:1032500008950E9427190E94281908950E94BA1BF8
:103260000E94240F08950E9422280E942F1C0E9471
:103270002E190E947A1F0E94290D0895AAE0B0E03D
:10328000E4E4F9E10C94C1300E943B1C1091290246
:1032900080E00E94DD1B18132AC00E942B288C019D
:1032A000809127029091280208171907A1F08FEF4B
:1032B00089838A831B820E942B288160782F9D83BB
:1032C0008C8349815A816B818D810E94500F1093AC
:1032D0002802009327020E9484250E945C1E0E94FF
:1032E000C41F0E94370F2A96E7E00C94DD308091CE
:1032F000320281FD0E94E31B0E942419D82E80E037
:103300000E94DD1B182F80912902181721F1E12E50
:10331000E82600E0FF24F3948E2D8F21B1F0DD200C
:10332000A1F00E831F8291E0812F8F2109F490E09C
:1033300098870E942B288160782F9A8789874E81F1
:103340005F8168858A850E94500F0F5FFF0C0530F2
:1033500019F7109329020E940319BDCFCF93DF9371
:103360000E94B91AEC01811521E5920708F042C0CC
:10337000811530E5930708F09FC0883E910530F530
:10338000803E910508F094C0883A910588F4853A0A
:10339000910508F086C08130910509F489C0009735
:1033A00009F486C0049708F083C0D0E0C0E080C074
:1033B0008F3B9105D0F7C85AD0E0CC0FDD1FC25823
:1033C000DE4F0990D881C02DD46472C0811540E2CF
:1033D000940750F4C11581E0D80708F069C0CD3ECC
:1033E000D10518F3D06564C081159044F0F2DF7008
:1033F000D06A5EC0811535E5930718F5811544E55F
:10340000940708F085C0C11583E5D80708F06CC0A3
:10341000C11522E5D20708F462C0CE018370992756
:1034200021E030E002C0220F331F8A95E2F7C695F3
:10343000C69580E2C89FE0011124C22BD32BDC6823
:1034400037C0811539E59307A8F4811548E594073D
:1034500008F063C0C11586E5D80708F0A6CF8C2F09
:103460000E945B1BC82FD0E0DC2FCC27CC27DF715C
:10347000D0621EC081152AE5920708F453C0905609
:103480008115904208F091CF8D2F8F710E945B1BA8
:1034900090E0982F882788279F719C012C2BE901A9
:1034A000E7CFC55AD0E0C455DE4FC881D0E0D06424
:1034B000CE01DF91CF9108958370992721E030E00C
:1034C00002C0220F331F8A95E2F7C695C69540E2E7
:1034D000C49FE0011124C22BD32BDD68E9CFDC2F80
:1034E000CC27C16FD06AE4CFCE018370992721E049
:1034F00030E002C0220F331F8A95E2F7C695C695C9
:1035000040E2C49FE0011124C22BD32BDA68D0CF54
:10351000D82FCC27C46FD06ACBCFD82FCC27C06F81
:10352000D06AC6CF8F700E945B1B34E0D695C795DA
:103530003A95E1F7CF709C2FEC01D069B9CF7111AA
:1035400010C0653070F4E62FF0E095E0899FE00D43
:10355000F11D1124EE0FFF1FE455FF4F859194914B
:10356000089580E090E008950E949F1A0E94AE198D
:10357000089582389105B9F1B0F48133910509F4C9
:103580007DC048F48932910509F46DC08A329105F5
:1035900009F47BC008958533910509F45FC0893330
:1035A000910509F10895833E9105D9F138F4803EE3
:1035B000910529F1823E910579F10895863E9105A4
:1035C000D9F1873E910509F43EC0843E910541F54D
:1035D00020918C0321FF24C080918B0384FD19C0AE
:1035E00087EE90E0089520918B03237009F05AC074
:1035F00020918C0323FF14C089E290E0089520916C
:103600008B0320FD38C030918C0330FF09C024FFAC
:1036100043C090E080E0089520918B0322FDF7CF16
:10362000089520918B0322FD3AC030918C0330FD28
:1036300039C024FFF5CFEDCF20918B0323FFF0CFCE
:1036400024FDE7CFCDCF20918B0323FD2EC03091F9
:103650008C0331FFEECF84EE90E0089520918B0330
:1036600025FFDECFC9CF20918B0325FD21C02091FE
:103670008C0323FFD5CF89E390E0D2CF20918B0339
:1036800026FFCECF8AE290E0089520918B0326FF9B
:10369000C7CF81E390E0089583EE90E0089582EE35
:1036A00090E0089580EE90E0089586EE90E0089511
:1036B00085E390E0089590918B0392FF06C0282F38
:1036C00028712830F9F4877F846093FF06C0282F83
:1036D00028712831F1F4877E846120918C0320FFCA
:1036E00006C0382F38713830D9F4877F816021FFC8
:1036F00006C0282F28712831D1F4877E816194FD7E
:10370000877E0895282F24712430F9F68B7F8860F6
:10371000DCCF282F2471243101F78B7E8861DDCF27
:10372000382F3171313019F78E7F8860E0CF282F24
:103730002171213121F78E7E8861E1CF80E00895EB
:103740000E944D1808950E943B1C8FE19EE4019752
:10375000F1F700C000000E943B1C80E00E94DD1BCE
:1037600083FF04C00E94A01B0E94762808950E9437
:10377000A31B08950E945418811102C00E94FA18D8
:103780000E945F18809332020E94691890938C0304
:1037900080938B030E94B71B0E94641890E00E94E4
:1037A00029138091D7019091D8010E944A1308955E
:1037B000089508950E94D91B0895E82FF0E0E2577C
:1037C000FC4F808108950895CF93AFEAB1E044EBB8
:1037D00051E061E070E08D918F3F91F0E82FE2952C
:1037E000EF70F0E0C1A18F709B0101C0220F8A959C
:1037F000EAF7922F90959C2391A382A1822B82A31A
:103800004A175B0741F7CF910895CF93DF93AC013F
:10381000A62FB0E085E0689FF0011124E155FE4F2E
:1038200075E081E060E091919F3F81F0C92FC295E2
:10383000CF70D0E028A130E09F7002C03595279569
:103840009A95E2F7982F20FD90E0692B880F715030
:1038500051F7A40FB51F6C93DF91CF9108950E948B
:10386000E41B10928E0310928D0381E00E94601C75
:103870000E94920E0895A1E0B0E0E1E4FCE10C9416
:10388000C530198260E0CE0101960E94051C90911E
:103890008D03898121E0981301C020E09813809363
:1038A0008D0341E06EE873E08DE893E00E94611CB7
:1038B000182F0E94950E812F2196E3E00C94E130A1
:1038C0000895CF92DF92EF92FF920F931F93CF93C1
:1038D0006C017B01042F222349F081E080933502A3
:1038E0000E942B289093340280933302C0913502BA
:1038F000C1110AC0C0E08C2FCF911F910F91FF9092
:10390000EF90DF90CF900895809133029091340230
:103910000E944328059770F310E0A801B601C70183
:103920000E94ED30892B41F0A801B601C7010E9429
:10393000FA3010923502DFCFC0E0FBCF0E943D2A63
:103940000E9433190E944A2A08950E944F2A0E9419
:103950003E190E94692A08950E94C4270E94232AC2
:103960000E9419190E949E1C0E94A51C0E942919E0
:10397000FBCF80913C0280FF0DC06091310170E06F
:10398000660F771F6038710570F56115710569F173
:10399000862F089581FF07C06091310184E0689F00
:1039A000B0011124EFCF6091310182FD0AC08091F6
:1039B0003B028823A9F020913001609131018217E8
:1039C00010F088E0ECCF869FC001112433E0880F0F
:1039D000991F3A95E1F7622F70E00E949C30D2CF98
:1039E00068E070E0D5CF8FE7089581E00895809179
:1039F0003C0280FF0CC060912D0170E075956795C9
:103A0000759567956115710549F1862F089581FFB8
:103A100006C060912D0170E075956795F3CF6091B8
:103A20002D0182FD0BC090913A029923A1F0609183
:103A30002C0180912D01961738F0682F70E06038C6
:103A4000710500F38FE70895899FC001112470E08C
:103A50000E949C30F4CF61E070E0D7CF81E0089500
:103A60008D3E31F40E94B91C8195809340020895E7
:103A70008E3E19F40E94B91CF8CF8F3E31F40E949B
:103A8000B91C819580933F020895803F19F40E94EC
:103A9000B91CF8CF893F29F40E94F71C809341029A
:103AA00008958A3F21F40E94F71C8195F7CF8B3F40
:103AB00031F40E94F71C81958093420208958C3F57
:103AC00019F40E94F71CF8CF9FE0980F983070F41B
:103AD000815F990B21E030E001C0220F8A95EAF75F
:103AE00080913E02822B80933E0208958D3F31F4F7
:103AF00080913C02816080933C0208958E3F21F4C6
:103B000080913C028260F7CF8F3FB9F780913C02F1
:103B10008460F1CF40913F028D3E59F48091400284
:103B200087FF0DC01092400241110BC010923B0262
:103B300008C08E3E81F48091400218169CF3442305
:103B400081F08091410290914202892B09F05AC084
:103B500010923A0208958F3E49F447FFF0CF109239
:103B60003F02809140028111ECCFE0CF803F19F4F9
:103B70001416ACF3E4CF90914102893F29F4191651
:103B8000F4F610924102DBCF8A3F19F497FFD7CFAA
:103B9000F8CF909142028B3F29F497FFD0CF10923B
:103BA0004202CDCF8C3F19F41916CCF3C8CF9FE059
:103BB000980F983090F4815F990B21E030E0B901C3
:103BC00002C0660F771F8A95E2F7CB01809590912E
:103BD0003E02892380933E02B2CF8D3F31F4809123
:103BE0003C028E7F80933C02AACF8E3F21F48091CD
:103BF0003C028D7FF7CF8F3F09F0A1CF80913C022F
:103C00008B7FF0CF08950E942B289C0190913F025A
:103C100080914002982B21F0309339022093380292
:103C20009091410280914202982B21F0309337020B
:103C3000209336028DE392E00E94F226089586E0FA
:103C4000EDE3F2E0DF011D928A95E9F710923B0265
:103C500010923A0210923C020895A6E0B0E0E3E32D
:103C6000FEE10C94C63086E0EDE3F2E0DE01119651
:103C700001900D928A95E1F729813A814B815C810F
:103C80006D817E8180E090E02696E2E00C94E23047
:103C9000FC01828181110EC0838181110BC084815E
:103CA000811108C091E08581811101C090E0892FC8
:103CB0008170089581E0FCCFA6E0B0E0E2E6FEE18D
:103CC0000C94C53086E0EDE3F2E0DE011196019040
:103CD0000D928A95E1F710923F02109240021092E5
:103CE0004102109242028B819C81892B89F0809144
:103CF0003802909139020E944328AC0190913B0216
:103D00009923C9F1809132018417150608F440C047
:103D10008D819E81892B91F080913602909137029E
:103D20000E944328AC0190913A02992309F471C092
:103D300080912E018417150608F479C0BE016F5FCB
:103D40007F4F8DE392E00E948127811105C08DE3B2
:103D500092E00E94481E81110E94031E86E0FE012F
:103D60003196ADE3B2E001900D928A95E1F7269687
:103D7000E3E00C94E130209133018AE0289F900128
:103D800011242417350720F69F5F90933B0202C051
:103D90009F3FD1F71B81112359F00E94B91C9FEF5F
:103DA00011160CF491E0899F802D112480933F021D
:103DB0001C81112359F00E94B91C9FEF11160CF4BD
:103DC00091E0899F802D11248093400230913F0221
:103DD000332309F49DCF20914002222309F498CF88
:103DE00045EB3403C0011124992359F090933F020D
:103DF00045EB240390011124332339F03093400222
:103E000087CF81E080933F02F3CF81E0809340022F
:103E10007FCF20912F018AE0289F90011124241741
:103E2000350708F08BCF9F5F90933A0202C09F3F07
:103E3000D1F71D81112359F00E94F71C9FEF111635
:103E40000CF491E0899F802D1124809341021E8102
:103E5000112359F00E94F71C9FEF11160CF491E00A
:103E6000899F802D11248093420230914102332397
:103E700009F464CF20914202222309F45FCF45EB7D
:103E80003403C0011124992359F09093410245EB6A
:103E9000240390011124332339F0309342024ECF92
:103EA00081E080934102F3CF81E08093420246CFCC
:103EB0000895ACE0B0E0EFE5FFE10C94C6304F832D
:103EC000588769877A878B879C8786E0FE013796BB
:103ED000DE01119601900D928A95E1F729813A81D0
:103EE0004B815C816D817E8180E090E02C96E2E0E8
:103EF0000C94E230E091B401F091B50109950E9473
:103F0000FA0C0E94581F089563E472E089E492E07D
:103F10000E948127882321F089E492E00E94F22602
:103F200010924B0210924C0210924D0210924E02CF
:103F300086E0E9E4F2E0A3E4B2E001900D928A9514
:103F4000E1F70895ACE0B0E0E8EAFFE10C94C63098
:103F50004F83588769878B879C8771957A8786E01E
:103F6000FE013796DE01119601900D928A95E1F7D8
:103F700029813A814B815C816D817E8180E090E076
:103F80002C96E2E00C94E230A6E0B0E0EAECFFE12F
:103F90000C94C630E091B601F091B701409149020E
:103FA00050914A0260914B0270914C0280914D02F7
:103FB00090914E020995F42FE52FCB0120934902F1
:103FC00030934A02F0934B02E0934C0260934D020F
:103FD00090934E02A9016F2F7E2F0E94A21FF42FF3
:103FE000E52FCB012093490230934A02F0934B0214
:103FF000E0934C0260934D0290934E02A9016F2F03
:104000007E2F0E94E10B2093490230934A02409395
:104010004B0250934C0260934D0270934E020E94EB
:104020002D1EE9E4F2E08181832B81830E94841FAD
:104030002696E2E00C94E230A6E0B0E0E2E2F0E2A4
:104040000C94C63086E0E9E4F2E0DE0111960190BE
:104050000D928A95E1F729813A814B815C816D81CE
:104060007E8180E090E02696E2E00C94E230A6E0CB
:10407000B0E0EDE3F0E20C94C63049835A836B83E1
:104080007C838D839E8386E0FE013196A9E4B2E0B5
:1040900001900D928A95E1F72696E2E00C94E230C9
:1040A000E091B801F091B90109950895A2E1B0E05D
:1040B000ECE5F0E20C94C6304D875E876F87788B15
:1040C000898B9A8B80E00E9422222F833887498730
:1040D0005A876B877C8723FF15C086E0FE013D96DB
:1040E000DE01119601900D928A95E1F729813A81BE
:1040F0004B815C816D817E8180E090E06296E2E0A0
:104100000C94E23027FD03C010924F02E6CF2985C0
:104110003A858B859C8540914F02411103C041E057
:1041200040934F0220384FEF34078CF02038310590
:1041300014F02FE730E080383FEF930754F08038D9
:10414000910514F08FE790E02F87888BC6CF20E889
:10415000F2CF80E8F9CF80E00E94B8200895BC013A
:1041600080E00E94CB20089580E00E94BE21089547
:104170002091BC013091BD018217130648F46FE015
:104180000E942D218F5F24E6829FC0011124089593
:1041900090E080E00895282FCB014091BC01509120
:1041A000BD012417150680F464E670E00E94883093
:1041B000AB01415051094837510510F047E750E035
:1041C0006FE0822F0E94FA200895CF9324E030E020
:1041D00043E060E080E30E94CE25C82F811105C036
:1041E0000E94A6268C2FCF91089582E08A95F1F740
:1041F00000C0F8CFA2E0B0E0E0E0F1E20C94C23001
:10420000182F062FE42E0E94E520F82E811106C0FB
:10421000F12C8F2D2296E6E00C94DE30003529F04B
:10422000E12FF0E0E05BFD4F108200680983EA8235
:1042300062E070E0CE0101960E947626892B41F75C
:104240008DE58A95F1F700000E94A62681E291E0B3
:104250000197F1F700C00000DCCFCF93C62F0E947A
:10426000E5208823D1F08C2F8F770E9446268FE39C
:1042700091E00197F1F700C000000E945E26C82F70
:1042800092E09A95F1F700C00E94A62682E38A95F3
:10429000F1F700C08C2FCF910895C0E0FBCFA3E0D1
:1042A000B0E0E5E5F1E20C94C530182F60E00E9423
:1042B0002D2189836FE3812F0E942D218A836AE259
:1042C000812F0E942D218B8343E050E0BE016F5F60
:1042D0007F4F88EC90E10E94ED3021E0892B09F0BE
:1042E00020E0822F2396E3E00C94E1300F931F939C
:1042F000CF93DF93C82F4DE163E10E94FA20811133
:1043000007C0D0E08D2FDF91CF911F910F910895BD
:104310008FE19EE40197F1F700C0000048E163E1FE
:104320008C2F0E94FA208C2F0E94E520D82F882302
:1043300041F382EE0E94462698E29A95F1F70AEC44
:1043400010E0F80184910E944626F8E2FA95F1F710
:104350000F5F1F4F80E1083C180799F7EFE8F1E085
:104360003197F1F700C000006AE28C2F0E942D21E6
:1043700040E060E18C2F0E94FA20C4CF882311F026
:1043800080E008950E94C62580E00E94E5208823F1
:10439000B9F32AE62A95F1F700C00E94A6268AE61C
:1043A0008A95F1F700C04AE56AE380E00E94FA20AE
:1043B000882331F39FE728E381E09150204080403B
:1043C000E1F700C0000062E080E00E942D2163E080
:1043D00080E00E942D2164E080E00E942D2165E0B4
:1043E00080E00E942D2166E080E00E942D2180E087
:1043F0000E947621882321F20E94A6268FE19EE466
:104400000197F1F700C0000060E476E080E00E94D0
:10441000CB208FEC97E00197F1F700C0000040E05F
:1044200060E180E00E94FA2044E161E180E00E94C6
:10443000FA2042E063E680E00E94FA2080E00E94D9
:104440004F210895ACE0B0E0E8E2F2E20C94C43011
:104450008E01095F1F4F96E0F80111929A95E9F7D6
:104460008823A9F086E0FE013796DE0111960190BF
:104470000D928A95E1F729813A814B815C816D81AA
:104480007E8180E090E02C96E4E00C94E030809116
:104490005002811109C040E060E50E94FA208823A3
:1044A00009F381E08093500280E00E94E520882398
:1044B000C9F280E50E944626FDE5FA95F1F7000075
:1044C00066E070E0C8010E948E268F81877011F02F
:1044D000109250020E94A62689859A859195819511
:1044E00091099A8789878B859C85919581959109FA
:1044F0009C878B87B7CFCF93DF93EC01FB01828141
:10450000882309F464C1C430FDE5DF07E0F5CB3F43
:104510009CE5D90730F49E0122503C4524313105F9
:10452000D8F50E94691890938C0380938B03C23155
:10453000ECE5DE0709F41FC108F06EC0C9308CE558
:10454000D80709F4F2C008F03FC0C530ECE5DE073B
:1045500009F4DBC058F5C3308CE5D80709F4CDC0A9
:1045600008F0CFC080918B038160C230DC4509F434
:10457000AEC080918B0390918C030E9477180E94AB
:10458000D41280E009C0C63AEDE5DE0751F238F4F6
:10459000C2369DE5D90729F2DF91CF9108959E019A
:1045A0002E5A3D4523303105B8F7BBCF80918B03A0
:1045B0008062C730FCE5DF0709F489C008F4B1C0A8
:1045C00080918B03806483C0CD309CE5D90709F4CA
:1045D000BAC070F480918B038E7FCB30FCE5DF078F
:1045E00009F475C008F4A7C080918B038D7F6FC05C
:1045F000CF309CE5D90709F4B6C008F4A8C0C03193
:10460000FCE5DF0709F4B3C0C131DC4509F0B1CFE7
:1046100080918B038F7B5BC0C1159DE5D90709F4A1
:10462000B4C098F5CB3FFCE5DF0709F472C0B8F4DD
:10463000C4319CE5D90709F4B6C008F4A2C0C5315D
:10464000DC4509F096CF80918B0382FB992790F986
:1046500021E0922790FB82F990FB83F938C0CD3F8F
:104660008CE5D80709F477C008F457C0CE3FECE5D5
:10467000DE0709F474C080918C038360CF3FDC4572
:1046800009F077CF80938C0374CFC2368DE5D807BD
:1046900009F496C068F4C230EDE5DE0709F48CC079
:1046A00008F477C0C330DD4509F063CF80E085C0F2
:1046B000CE3A9DE5D907E9F068F490918B03892FF4
:1046C0008E7F90FF8160C63ADD4509F052CF80931E
:1046D0008B034FCFCF3A8DE5D80789F1C03BDD453D
:1046E00009F047CF90918C03892F877F93FF8860D3
:1046F000C9CF80918C038860C5CF80918B03826085
:10470000E6CF80918B038460E2CF80918B03886039
:10471000DECF80918C038160B5CF80918C03826065
:10472000B1CF80918B038061D2CF0E94D41280914F
:104730008B038068CCCF80918B038C60C8CF809135
:104740008C03877F9FCF80918B038B7FC0CF80911D
:104750008B03877FBCCF80918C038E7F93CF80911A
:104760008C038D7F8FCF80918B038F7EB0CF809114
:104770008B038F7DACCF0E94D41280918B038F77F7
:10478000A6CF80918B03837FA2CF80918C038C7FF7
:1047900079CF80918C03982F909591708E7F892B83
:1047A00090FB81F96FCF0E94D41290918B03892FD7
:1047B00097FB87F980588BCF81E00E94FD18D9CEF6
:1047C00090918B03892F8F7E94FF806180CF81E051
:1047D000E3CECF93DF93EB0186319C4511F50E9428
:1047E00063179A81992399F08A7A91E009F490E00D
:1047F00090935102811109C089E20E943B170E94E7
:10480000A71780E0DF91CF91089585E3F6CF8091DF
:104810005102811104C089E20E944317F0CF85E361
:10482000FBCF81E0EFCF0F931F93CF93DF93C42F84
:10483000D22FFC0182818823C9F0409354020E9448
:104840002B28909353028093520280E28C0F883081
:1048500040F4C77081E001C0880FCA95EAF70E9452
:104860004B10DF91CF911F910F9108951091540239
:10487000141332C080915202909153020E94432837
:10488000883C910548F5C0E2CD0F1D17B9F080E2D4
:10489000810F883040F4177081E001C0880F1A95AD
:1048A000EAF70E945210C83048F481E09D2F9770BB
:1048B00001C0880F9A95EAF70E944B10802F0E9442
:1048C0004210C83070F6D77081E001C0880FDA95C9
:1048D000EAF70E945210C5CF80E28C0F883008F6AC
:1048E000C77081E001C0880FCA95EAF7F2CF0F9335
:1048F0009C01CB01243F4CE5340759F1A8F4293D34
:10490000FCE53F0701F12A3D4CE53407D1F1283D94
:104910003C4591F406E221EE41EE68ED7CE50E9413
:10492000132480E00F910895263FFCE53F07E9F04E
:10493000B0F0273F3C45F9F0FC018281882339F132
:1049400010925402EFCF07E225EE45EE69ED7CE5CB
:10495000E6CF06E221EE40EE64EF7CE5E0CF07E231
:1049600025EE44EE65EF7CE5DACF06E221EE42EE7D
:1049700066EF7CE5D4CF07E225EE46EE67EF7CE5F7
:10498000CECF08E221E045EE6AED7CE5C8CF81E0BC
:10499000C9CFCF93DF93EC01EA85FB85309719F0FF
:1049A0006C857D8509958B810E947F178C810E9483
:1049B0006C170E94A71786E0FE0111928A95E9F70D
:1049C000DF91CF910895CF93DF93EC018D8181FD2D
:1049D00012C082608D838B810E9479178C810E9426
:1049E00066170E94A717E885F985309721F06C8536
:1049F0007D85CE01099510925802109257028D8143
:104A000080FD03C0CE010E94C924DF91CF9108959B
:104A1000FB0122812223E1F0E0915702F09158023C
:104A20003097B1F0E817F90799F02EE0E29FF00116
:104A30001124DF01AD5EBE4F2C9124602C93E25F08
:104A4000FE4F91838083CF010E94E3240E9486174A
:104A50000895EF92FF920F931F93CF93DF938C01F2
:104A600097558F3F910511F008F041C07801FF2460
:104A70008EE0089FF0011124EF01C25FDE4FDB01E1
:104A800012962C91ED5EFE4F808120FB80F9808391
:104A9000222399F10E942B2890935602809355026D
:104AA0008A818F5F8A830E9463178B830E947617A7
:104AB0009B81892B8B830E9489178C83EE81FF81D8
:104AC000309721F06C857D85CE0109958EE08E9D15
:104AD000F0018F9DF00D1124E25FFE4F858181FF73
:104AE00002C010E000E0109358020093570281E0EA
:104AF000CDB7DEB7E6E00C94DE308D8181FFF7CFD5
:104B0000CE010E94C924F3CF8091570290915802A0
:104B1000892BC9F080915502909156020E9443283A
:104B2000893C910580F0809157022EE0829FC00160
:104B30001124FC01ED5EFE4F208122FD04C0825F46
:104B40009E4F0E94E324089595E890937A00982F51
:104B50009072906890937B008F7190913401892BB3
:104B600080937C0080917A00806480937A008091A9
:104B70007A0086FDFCCF8091780020917900909199
:104B80007A009F7790937A00922F0895289A219A1D
:104B9000229A23982B9880E58CBD08959091350139
:104BA0009F3F09F071C08F3F09F46EC0611144C08E
:104BB00010925A0290915A02423009F441C0433097
:104BC00009F442C094604130E1F141E050E0421705
:104BD0005307E0F190915A024031510509F452C057
:104BE000C0F54230510509F446C04830510509F47A
:104BF00046C09CB520915A02922B9CBD90915902BF
:104C0000992319F09DB591609DBD80933501E82FE2
:104C1000E295EF70F0E031A1282F2F7081E090E055
:104C200001C0880F2A95EAF7382B31A392A180950D
:104C3000892382A381E0089590E290935A02BACF2B
:104C4000986090935A02C1CF9C60FBCF440F551FD0
:104C5000BECF4034510549F04038510541F0403253
:104C6000510539F621E020935902926001C093600A
:104C700090935A02BECF91E090935902BACF21E0AF
:104C8000209359029160F4CF80E00895CF93DF9391
:104C90008EBD0E942B28EC010DB407FE05C08EB519
:104CA00090E0DF91CF9108950E942B288C1B9D0BE3
:104CB0008436910588F38EEF9FEFF3CFCF93DF9388
:104CC0001EBC0E942B28EC010DB407FE05C08EB55A
:104CD00090E0DF91CF9108950E942B288C1B9D0BB3
:104CE0008436910588F38EEF9FEFF3CF0F931F93D8
:104CF000CF93DF93EC018C01060F171FC017D1076C
:104D000019F490E080E005C089910E94462697FF43
:104D1000F5CFDF91CF911F910F9108950F931F93BE
:104D2000CF93DF93EC018C01060F171FC017D1073B
:104D300039F490E080E0DF91CF911F910F910895B9
:104D40000E945E2697FDF7CF8993F0CF80913501C1
:104D50008F3F29F1E82FE295EF70F0E041A18F70CD
:104D600021E030E0B90102C0660F771F8A95E2F7B3
:104D7000CB01942F982B91A392A1892B82A38FEF23
:104D8000809335018DB58E7F8DBD9CB580915A0283
:104D9000809589238CBD10925A0210925902089571
:104DA0009093BF018093BE01089590936002809319
:104DB0005F020895E0915F02F0916002309729F060
:104DC0000190F081E02D0995089580E00895E0912B
:104DD0005F02F0916002309721F00280F381E02DB4
:104DE00009950895E0915F02F0916002309739F0E3
:104DF00022E0DC012C930480F581E02D09950895D3
:104E000020915D0230915E022817390771F090936E
:104E10005E0280935D02E0915F02F0916002309744
:104E200021F00680F781E02D0995089520915B021D
:104E300030915C022817390771F090935C028093DF
:104E40005B02E0915F02F0916002309721F00084F4
:104E5000F185E02D099508959C012E5F3F4FAC012F
:104E6000485F5F4F80E02417350709F40895F90182
:104E700091919F019923B9F38F5FF5CF662349F094
:104E8000FC01329608962191261729F0E817F907B8
:104E9000D1F780E0089581E008959C01FC013296ED
:104EA0009FEF80E04191461751F09F3F19F4411167
:104EB00001C0982F8F5F8630A9F79F3F09F40895AE
:104EC000290F311D97FD3A95F90162830895FC0180
:104ED000329608962191261303C0DF0111971C9288
:104EE000E817F907B9F708950E944D2708950E9421
:104EF00067270895029626E0FC0111922A95E9F7AA
:104F0000089546E050E00E94ED3021E0892B09F43D
:104F100020E0822F089508950E948B270895811123
:104F200006C081E0809361020E948C27089582E090
:104F3000F9CF83E0809361020E948C2708950E943C
:104F40008F27089581E0809361020E948C27089545
:104F50000E94A2270895089508950E94AC270895FD
:104F6000089508950E94AB2708950E94B0270E94DB
:104F70003B1C0E94B12780E00E94DD1B91E0811163
:104F800001C090E0892F089585B7806885BF85B7F7
:104F9000806885BF08951F921FB61F9211248F93BA
:104FA0009F93AF93BF9380916202811113C0809150
:104FB0008F0390919003A0919103B0919203419639
:104FC000A11DB11D80938F0390939003A093910333
:104FD000B0939203BF91AF919F918F911F901FBE8D
:104FE0001F90189580919703843031F10E940F0F24
:104FF0001092620288E190E020E40FB6F894A89540
:10500000809360000FBE2093600083B7817F84602F
:1050100083BF83B7816083BF7894889583B78E7F81
:1050200083BF0FB6F894A895809160008861809343
:105030006000109260000FBE08950E94D4120E947A
:10504000160F089582E084BD93E095BD9DE797BD5E
:1050500080936E0008952FB7F89480918F039091FC
:105060009003A0919103B09192032FBF08952FB7A1
:10507000F89460918F0370919003809191039091C7
:1050800092032FBF08959C014FB7F89480918F032E
:1050900090919003A0919103B09192034FBF821B16
:1050A000930B089578941F921FB61F9211248F932B
:1050B0009F93AF93BF9380918F0390919003A091A2
:1050C0009103B09192030196A11DB11D80938F03AE
:1050D00090939003A0939103B0939203BF91AF91EB
:1050E0009F918F911F901FBE1F90189581E0809314
:1050F000E00080E28093D8001092C9008FE097E230
:105100000197F1F700C0000087E090EBDC0180938D
:10511000A0039093A103A093A203B093A30388E1FB
:105120009CE00FB6F894A895809360000FBE909312
:105130006000FFCF88E19CE00FB6F894A8958093BB
:1051400060000FBE90936000FFCF80916E020895C3
:1051500008959C0182E08093E9009FEF8091E80030
:10516000915085FD06C08AE68A95F1F700C091113D
:10517000F5CF8091E80085FF0CC050E040E066E08C
:1051800070E0C9010E94DA2A8091E8008E7780934E
:10519000E8000895CF93DF93EC0181E08093E9006C
:1051A0008FEF9091E800815095FD06C09AE69A95A0
:1051B000F1F700C08111F5CF8091E80085FF14C0A0
:1051C00050E040E068E070E0CE010E94DA2A809171
:1051D000E8008E778093E80088E0FE01A6E6B2E062
:1051E00001900D928A95E1F7DF91CF910895809318
:1051F0006302709365026093640280919703843028
:1052000001F582E08093E9008FEF9091E8008150F2
:1052100095FD06C09AE69A95F1F700C08111F5CF89
:105220008091E80085FF0DC050E040E063E070E051
:1052300083E692E00E94DA2A8091E8008E778093DC
:10524000E8000895BC0184E00E94F7280895BC019D
:1052500083E00E94F728089580919603811109C088
:105260000E946A2C0E94C72C8091E2008460809387
:10527000E20008951092960308950E94A2270895CF
:105280006091930381E0611101C080E00E94992741
:1052900008959091970381E0943009F080E0609147
:1052A00093030E949F27089542E061EC81E00E94F1
:1052B000E62B42E261EC82E00E94E62B909197039C
:1052C00081E0943009F080E0609193030E948F2781
:1052D000089580919903833009F461C030F48130DE
:1052E000D1F1823009F49EC008958A3009F48AC051
:1052F0008B3009F46FC0893009F050C08091980359
:10530000813209F04BC080919C0390919D030297DC
:1053100008F044C08091E800877F8093E800809186
:10532000E80082FF37C09091F3008091F20002976D
:1053300031F48091F100813011F0863021F48091B8
:10534000F10080936E028091E8008B778093E800F3
:105350000E941A2C23C080919803813AF9F480911D
:10536000E800877F8093E80080919C0390919D03E3
:10537000892B61F468E086E692E070E00E94292BB8
:105380008091E8008B778093E800089560E090E0DA
:1053900080E0F3CF809197038111C1CF0895809170
:1053A0009803813AD9F780919C0390919D03892BB2
:1053B000A9F78091E800877F8093E8008091E8005A
:1053C00080FFFCCF809142018093F1008091E80042
:1053D0008E77BCCF80919803813201F780919C0336
:1053E00090919D03892BD1F68091E800877F80936F
:1053F000E8000E941A2C80919A03809342010E9437
:10540000D412089580919803813241F68091E8008A
:10541000877F8093E8000E941A2C80919B038093E1
:105420006F02089580919803813A09F0B7CF809177
:10543000E800877F8093E8008091E80080FFFCCF40
:1054400080916F02C1CF84B7877F84BF0FB6F89475
:10545000A895809160008861809360001092600040
:105460000FBE80E890E00FB6F894809361009093AF
:1054700061000FBE0E94A82708950E946A2C0E9416
:10548000C72CE2EEF0E080818460808378940E94F3
:10549000432F089586E391E00E94D52608958091D8
:1054A0009703853031F480919703853019F00E947D
:1054B0001D2808950E94F22780919503882399F36F
:1054C0000E94B527882379F30E94C52A0E94D4122E
:1054D000EACF08950E946D2A0895292F332723309B
:1054E000310519F168F42130310509F444C0223046
:1054F000310509F445C090E080E030E020E025C0AF
:105500002132310549F122323105A9F780E490E0DA
:1055100021EC31E161157105C1F08BE790E026E4E3
:1055200031E16130710589F0E6CF9927813091052D
:1055300081F0009729F00297F1F6EBECF0E102C060
:10554000E5EFF0E1849190E09F01FA01318320833F
:105550000895E1EEF0E1F6CF89E090E02BE031E153
:105560006115710591F389E090E024E231E1613049
:10557000710559F3C0CF82E190E024E331E1E5CF3A
:105580008BE390E029EF30E1E0CF19BC82E089BDE8
:1055900009B400FEFDCF8091D8008F7D8093D800A4
:1055A0008091E00082608093E0008091E00081FDC6
:1055B000FCCF0895AF92BF92CF92DF92FF920F93EC
:1055C0001F93CF93DF936C01EB018A010E94392C6A
:1055D000F82E811123C00115110539F0F8018081E1
:1055E0009181C81BD90BC80ED91EB12CA12C2097B4
:1055F000A9F08091E80085FD22C08091E8008E77B7
:105600008093E80001151105A1F0F80180819181D6
:10561000A80EB91EB182A08285E0F82E8F2DDF91F1
:10562000CF911F910F91FF90DF90CF90BF90AF90DF
:1056300008950E94392C8823D1F2F82EEFCFF6017D
:1056400081916F018093F1002197FFEFAF1ABF0A9C
:10565000CECFFC0180919E0390919F038617970700
:10566000A0F06115710529F49091E8009E77909360
:10567000E80090E06115710551F4911108C0809126
:10568000E80082FF34C080E00895BC01F2CF809131
:1056900097038823C1F18530C1F18091E80083FD33
:1056A00030C08091E80082FDEACF8091E80080FF61
:1056B000E1CF8091F3002091F200382F6115710540
:1056C00019F02830310558F091E02830310509F003
:1056D00090E02091E8002E772093E800CBCF8191D5
:1056E0008093F100615071092F5F3F4FE7CF8091A8
:1056F0009703882341F0853041F08091E80083FFD3
:10570000BECF81E0089582E0089583E00895FC0112
:1057100080919E0390919F0386179707A0F06115D3
:10572000710529F48091E8008E778093E80090E07D
:105730006115710551F4911108C08091E80082FF54
:1057400035C080E00895BC01F2CF80919703882393
:10575000C9F18530C9F18091E80083FD31C08091A5
:10576000E80082FDEACF8091E80080FFE1CF8091E0
:10577000F3002091F200382F6115710519F02830DF
:10578000310558F091E02830310509F090E0809122
:10579000E8008E778093E800CBCF84918093F1006E
:1057A0003196615071092F5F3F4FE6CF809197038B
:1057B000882341F0853041F08091E80083FFBDCF20
:1057C00081E0089582E0089583E00895982F97304E
:1057D00028F08F708093E90081E008959093E900AC
:1057E000242F762F50E0981731F07091EC00209123
:1057F000ED005091F00021FD02C09F5FE8CF309195
:10580000EB003E7F3093EB003091ED003D7F309315
:10581000ED003091EB0031603093EB007093EC00C1
:105820002093ED005093F0002091EE0027FDE5CF8E
:1058300080E008958091980387FF13C08091E8006D
:1058400082FF06C08091E8008B778093E80004C057
:10585000809197038111F2CF089580919703882357
:10586000D9F38091E80080FFF8CF8091E8008E772F
:10587000ECCF2091E4003091E50095E6A90120915C
:10588000EC00822F817020FF06C08091E80080FF2D
:1058900006C080E008952091E80022FD1AC08091A2
:1058A0009703882389F0853089F08091EB0085FD8E
:1058B0000FC02091E4003091E50042175307F9F240
:1058C0009150E1F684E0089582E0089583E0089520
:1058D00081E008950E94D92C0E94E12CE0EEF0E0D6
:1058E000808181608083E8EDF0E080818F77808324
:1058F00019BCA7EDB0E08C918E7F8C9380818F7E58
:1059000080831092960308950F931F93CF93DF9394
:105910000E94D92C0E94E12CC8EDD0E088818F77BD
:10592000888388818068888388818F7D888319BC7B
:105930001092970310929303109295031092940380
:1059400000EE10E0F80180818B7F80838881816088
:10595000888342E060E080E00E94E62BE1EEF0E028
:1059600080818E7F8083E2EEF0E0808181608083A1
:10597000808188608083F80180818E7F8083888128
:1059800080618883DF91CF911F910F910895E8ED99
:10599000F0E080818F7E8083E7EDF0E080818160A0
:1059A000808384E082BF81E0809396030E94842CF0
:1059B0000895E8EDF0E080818E7F80831092E20010
:1059C00008951092DA001092E10008951F920F924C
:1059D0000FB60F9211242F933F934F935F936F93C2
:1059E0007F938F939F93AF93BF93EF93FF93809198
:1059F000E10082FF0BC08091E20082FF07C080912E
:105A0000E1008B7F8093E1000E94422F8091DA00B9
:105A100080FF18C08091D80080FF14C08091DA0008
:105A20008E7F8093DA008091D90019BC80FF93C0EB
:105A300082E089BD09B400FEFDCF81E08093970329
:105A40000E942C298091E10080FF19C08091E20022
:105A500080FF15C08091E2008E7F8093E2008091EC
:105A6000E20080618093E2008091D80080628093A0
:105A7000D80019BC85E0809397030E94402980914B
:105A8000E10084FF2AC08091E20084FF26C019BC97
:105A900082E089BD89B5982F917080FFFBCF8091FE
:105AA000D8008F7D8093D8008091E1008F7E809315
:105AB000E1008091E2008F7E8093E2008091E2001D
:105AC00081608093E20080919303882309F448C0A9
:105AD00084E0809397030E9449298091E10083FF2D
